:040000004AEF00F0D3
:100008004B82FACF01F0FBCF02F0E9CF03F0EACF41
:1000180004F0E1CF05F0E2CF06F0D9CF07F0DACF50
:1000280008F0F3CF09F0F4CF0AF0F6CF0BF0F7CFD2
:100038000CF0F8CF0DF0F5CF0EF09DB89EA803D0C8
:10004800E4EC03F005D09DBA9EAA02D0FBEC03F0C5
:100058000EC0F5FF0DC0F8FF0CC0F7FF0BC0F6FF90
:100068000AC0F4FF09C0F3FF08C0DAFF07C0D9FFD0
:1000780006C0E2FF05C0E1FF04C0EAFF03C0E9FFD4
:1000880002C0FBFF01C0FAFF4B921100CBEF03F057
:100098001D0E266E000E276E77D1250E2E18D8B4A9
:1000A80004D02E506EEC04F06FD1000E2D6E000EB1
:1000B8002C6E000E2B6E03D02B841B4A1C2A1BC0EF
:1000C800F6FF1CC0F7FF0800F550300AD8B4F4D783
:1000D8001BC0F6FF1CC0F7FF0800F55034EC04F015
:1000E800D8A035D0000E2D6E000E2C6E2CC00FF04F
:1000F8002DC010F0000E126E0A0E116E11EC04F0F5
:100108000FC02CF010C02DF0D00E216EFF0E226E05
:100118001BC0F6FF1CC0F7FF0800F550236E246AC9
:10012800215023262250242223502C2624502D22CD
:100138001B4A1C2A1BC0F6FF1CC0F7FF0800F5501D
:1001480034EC04F0D8A003D0D1D72B8E1AD01BC022
:10015800F6FF1CC0F7FF1B4A1C2A0800F5CF2EF03B
:100168002E50000AD8B41200580AD8B4EED73C0A68
:10017800D8B407D00D0AD8B404D0110AD8B4E5D73A
:1001880003D12BBE15D026C0D9FF27C0DAFFDECF9A
:1001980029F0DDCF2AF0020E2626000E27222AAEED
:1001A80044D0030E2B12296C2A1ED8B02A2A3DD01F
:1001B80026C0D9FF27C0DAFFDECF29F0DDCF2AF02D
:1001C800020E2626000E272230D0010E2E6E050EB6
:1001D8002E18D8B432D02E50020DD90EF324F66E54
:1001E800FE0EF420F76E0900F550295C0900F55061
:1001F8002A58D8A022D02E2AEAD7010E2E6E040E35
:100208002E18D8B41AD02E50020DE30EF324F66E31
:10021800FE0EF420F76E0900F550295C0900F55030
:100228002A58D8A00AD02E2AEAD72B50800B000AC9
:10023800D8B4CBD7800AD8B4E0D72C502D10D8B476
:1002480009D02BC021F0030E2116D8B403D02C06F8
:10025800D8A02D06800E2EBE7F0E216E2C502E5C4F
:100268002D50800A2158D8B007D02E502C5E000E91
:100278002EBEFF0E2D5A04D0000E2D6E000E2C6ED1
:100288002BA414D02BC021F0030E2116D8B403D010
:100298002D0E6EEC04F02C502D10D8B41ED0300E5C
:1002A8006EEC04F02C06D8A02D06F5D72C502D1096
:1002B800D8B40AD0200E6EEC04F02C06D8A02D0677
:1002C8002C502D10D8A4F6D72BC021F0030E2116E0
:1002D800D8B403D02D0E6EEC04F02EC028F050D008
:1002E8002850020DD90EF324F66EFE0EF420F76E98
:1002F8000900F5CF11F00A00F5CF12F029C00FF070
:100308002AC010F030EC03F00FC016F010C017F040
:10031800000E196E0A0E186E59EC03F01650300FC5
:100328002E6E2BD029C00FF02AC010F02850020DD5
:10033800E30EF324F66EFE0EF420F76E0900F5CFF7
:1003480011F00A00F5CF12F030EC03F00F500F0B4C
:10035800256E2550010D840EF324F66EFF0EF42051
:10036800F76E0800F5CF2EF008D02B50800B000A4E
:10037800D8B4B6D7800AD8B4D5D72E506EEC04F0CE
:1003880028062828D8A4F1D71BC0F6FF1CC0F7FF01
:100398001B4A1C2A0800F5CF2EF02E50D8B41200A4
:1003A8007CD643EC04F0F28EF28CD00E2F6ECA0E7F
:1003B800E82EFED72F2EFCD7EC0E1B6EFF0E1C6E00
:1003C8004CEC00F0000E366E090E366401D009D0F0
:1003D800D00E2F6ECA0EE82EFED72F2EFCD7362A47
:1003E800F3D7D20E1B6EFF0E1C6E4CEC00F0000E05
:1003F800376E090E376401D009D0D00E2F6ECA0EA1
:10040800E82EFED72F2EFCD7372AF3D7A50E1B6E62
:10041800FF0E1C6E4CEC00F0000E386E090E3864AE
:1004280001D009D0D00E2F6ECA0EE82EFED72F2E7F
:10043800FCD7382AF3D7C30E1B6EFF0E1C6E4CEC8C
:1004480000F0000E396E090E396401D009D0D00EC3
:100458002F6ECA0EE82EFED72F2EFCD7392AF3D7D7
:10046800B40E1B6EFF0E1C6E4CEC00F0000E3A6EC4
:10047800090E3A6401D009D0D00E2F6ECA0EE82EAC
:10048800FED72F2EFCD73A2AF3D7720E1B6EFF0E1B
:100498001C6E4CEC00F0000E3B6E090E3B6401D064
:1004A80009D0D00E2F6ECA0EE82EFED72F2EFCD7FD
:1004B8003B2AF3D7950E1B6EFF0E1C6E4CEC00F01A
:1004C800000E3C6E090E3C6401D009D0D00E2F6E90
:1004D800CA0EE82EFED72F2EFCD73C2AF3D7E00E03
:1004E8001B6EFF0E1C6E4CEC00F0000E3D6E090EEC
:1004F8003D6401D009D0D00E2F6ECA0EE82EFED76B
:100508002F2EFCD73D2AF3D7260E1B6EFF0E1C6E2E
:100518004CEC00F0000E3E6E090E3E6401D009D08E
:10052800D00E2F6ECA0EE82EFED72F2EFCD73E2AED
:10053800F3D7130E1B6EFF0E1C6E4CEC00F0000E72
:100548003F6E090E3F6401D009D0D00E2F6ECA0E3F
:10055800E82EFED72F2EFCD73F2AF3D74C0E1B6E62
:10056800FF0E1C6E4CEC00F0000E406E090E40644D
:1005780001D009D0D00E2F6ECA0EE82EFED72F2E2E
:10058800FCD7402AF3D7390E1B6EFF0E1C6E4CECBD
:1005980000F0000E416E090E416401D009D0D00E62
:1005A8002F6ECA0EE82EFED72F2EFCD7412AF3D77E
:1005B8005F0E1B6EFF0E1C6E4CEC00F0000E426EC0
:1005C800090E426401D009D0D00E2F6ECA0EE82E53
:1005D800FED72F2EFCD7422AF3D7000E356E000E19
:1005E800346E000E316E000E306E000E336E000E4B
:1005F800326ED00E2F6ECA0EE82EFED72F2EFCD7E5
:10060800D00E2F6ECA0EE82EFED72F2EFCD7D00E96
:100618002F6ECA0EE82EFED72F2EFCD7D00E2F6EC7
:10062800CA0EE82EFED72F2EFCD7D00E2F6ECA0E7C
:10063800E82EFED72F2EFCD7EB0E1B6EFE0E1C6E7F
:1006480034C01DF035C01EF049C01FF0206A4CECC4
:1006580000F0344A352ACDD7000E146E000E136E02
:1006680011501210D8B41CD0010E156E04D0D890B9
:1006780011361236152A12AEFAD7D8901336143618
:1006880011500F5C12501058D8A005D011500F5EB1
:100698001250105A1380D89012321132152EEDD7FD
:1006A80013C00FF014C010F0120018501910D8B46D
:1006B80018D0010E1A6E04D0D890183619361A2A96
:1006C80019AEFAD71850165C19501758D8A004D08C
:1006D8001850165E1950175AD890193218321A2E17
:1006E800F1D716C016F017C017F012000F6E4A5057
:1006F800D8B4FDD79DB803D00FC0ADFF12D09D98D8
:100708004650010D600EF324D96E000EF420DA6E07
:100718000FC0DFFF462A7F0E466402D0000E466EE9
:100728004A069D881200000E8A6E000E896E000E21
:100738008B6E2F0E0F01386F3E0E0F01396F380E7A
:100748000F013A6FC80E936EF90E946EFE0E616E2D
:10075800EF0E926EF18EF29612009D9A9D98000E01
:10076800B86E900EAB6E200EAC6E100EAF6E000E13
:10077800B06E000E466E000E476E800E4A6E000E7A
:10078800446E000E456E000E436E9D8A120001EE07
:1007980000F0800EEE6AE806FDE100EE60F0800EE3
:1007A800EE6AE806FDE100EE43F0070EEE6AE806A1
:1007B800FDE14B904B92000EF86E0001D5EF01F071
:1007C800800E4A6012D04750010D600EF324D96E96
:1007D800000EF420DA6EDF50AD6E472A7F0E4764B4
:1007E80002D0000E476E4A2A12009D981200ABA252
:1007F80002D0AB98AB884450010D000EF324D96E9B
:10080800010EF420DA6EAECFDFFF442A7F0E446477
:1008180002D0000E446E432A12000F501102F3CF8B
:1008280013F0F4CF14F00F501202F35014261050A6
:100838001102F350142613C00FF014C010F0120068
:100848000E0EBD6E000EB66E820EB76E010EB96E3C
:10085800000EBE6E000EBF6EFC0E0F01491712008F
:10086800116E000E106E3A0E116005D02F0E116435
:1008780002D0010E106E10C00FF00F30120073EC92
:1008880004F097EC03F067EC04F024EC04F05EEC61
:1008980004F052EC04F0B1EC03F01200D568000E3D
:1008A800D76E000ED66E000E486EF294F28A79EC7E
:1008B80004F01200000EBA6EBB68000EBC6E9E9269
:1008C80077EC04F01200700ED36E040ED26E400E58
:1008D8009B6E1200106E10507AEC03F01200D09E3E
:0E08E8009F989F9A1200BA841200D58E1200BB
:10FED8000001000A006400E8031027010010000078
:10FEE800010010726164696F2074782031303030FD
:10FEF80030303030303030303030303030303030FA
:10FF080030302530345825640D0A00726164696FF9
:10FF180020736574206277203530300D0A007261D5
:10FF280064696F2073657420707772202D330D0A11
:10FF380000726164696F2073657420637220342FC6
:10FF4800350D0A00726164696F20736574207366E9
:10FF5800207366370D0A00726164696F20736574D7
:10FF680020637263206F6E0D0A00726164696F20EE
:10FF78006765742070726C656E0D0A00303132331B
:10FF88003435363738394142434445460072616456
:10FF9800696F20676574207077720D0A007261645A
:10FFA800696F206765742073660D0A007261646961
:10FFB8006F206765742063720D0A00726164696F4F
:10FFC800206765742062770D0A007379732067656E
:10FFD80074207665720D0A006D6163207061757317
:10FFE800650D0A007379732072657365740D0A00D4
:08FFF80061686F6A0D0A000048
:020000040020DA
:08000000FFFFFFFFFFFFFFFF00
:020000040030CA
:0E000000FF281F3CFFBF81FF0FC00FE00F4025
:00000001FF
