:040000004AEF00F0D3
:100008003A82FACF18F0FBCF19F0E9CF1AF0EACF0D
:100018001BF0E1CF1CF0E2CF1DF0D9CF1EF0DACFF4
:100028001FF0F3CF20F0F4CF21F0F6CF22F0F7CF76
:1000380023F0F8CF24F0F5CF25F09DB89EA803D083
:100048006DEC0DF005D09DBA9EAA02D0CFEC07F05A
:1000580025C0F5FF24C0F8FF23C0F7FF22C0F6FF34
:1000680021C0F4FF20C0F3FF1FC0DAFF1EC0D9FF74
:100078001DC0E2FF1CC0E1FF1BC0EAFF1AC0E9FF78
:1000880019C0FBFF18C0FAFF3A9211002CEF0BF0D1
:10009800ABEF04F0250E00017A19D8B43CD000016A
:1000A80020EE02F06551D9266651DA22DE50DE10C4
:1000B800D8B41AD0000120EE02F06551D926665155
:1000C800DA22DECF6BF0DDCF6CF002D8ABEF04F0B4
:1000D8000500FA6E00016B51FD6E6C51FE6EFF6AF1
:1000E800FA5000017A51120065C0D9FF66C0DAFFE4
:1000F800DECF6BF0DDCF6CF06BC0D9FF6CC0DAFFE0
:100108007AC0DFFF65C0D9FF66C0DAFFDE2A000EBD
:10011800DD22ABEF04F0000E0001796F000E786F5E
:10012800000E0001776F05D0000177850001674B4D
:10013800682B67C0F6FF68C0F7FFF86A0800F5503B
:10014800300AD8B4F1D767C0F6FF68C0F7FFF86A7D
:100158000800F550F2EC0DF0D8A075D1000E0001A2
:10016800796F000E786F78C026F079C027F0000EFE
:10017800296E0A0E286EC0EC0DF026C078F027C054
:1001880079F0D00E00016B6FFF0E00016C6F67C035
:10019800F6FF68C0F7FFF86A0800F55000016D6FB8
:1001A8006E6B00016B5100016D2700016C5100015D
:1001B8006E2300016D510001782700016E51000186
:1001C80079230001674B682B67C0F6FF68C0F7FF0B
:1001D800F86A0800F550F2EC0DF0D8A034D1C3D776
:1001E8000001778F53D169C0D9FF6AC0DAFFDFCF2A
:1001F8006BF0020EDE26DFCF6CF0000EDD226BC046
:10020800D9FF6CC0DAFFDECF73F0DDCF74F00001E8
:10021800735100017411D8A406D0F20E0001736F57
:10022800FF0E0001746F000E0001726F000E716FF7
:1002380003D00001714B722B00017151000173252D
:1002480000016B6F000172510001742100016C6F95
:100258006BC0F6FF6CC0F7FF000EF86E0F0EF76468
:1002680003D00800F55005D0F6CFE1FFF7CFE2FF45
:10027800E7500009D8A4DDD7000178510001715D6D
:100288000001795100017259D8B009D000017151AB
:100298000001785F000172510001795B3ED0000EC9
:1002A8000001796F000E786F38D0000120EE02F05F
:1002B8006551D9266651DA22DE50DE10D8B418D03E
:1002C800000120EE02F06551D9266651DA22DECF10
:1002D8006BF0DDCF6CF001D820D00500FA6E00017C
:1002E8006B51FD6E6C51FE6EFF6AFA50200E1200C3
:1002F80065C0D9FF66C0DAFFDECF6BF0DDCF6CF0EA
:100308006BC0D9FF6CC0DAFF200EDF6E65C0D9FF65
:1003180066C0DAFFDE2A000EDD2200017807D8A0C9
:10032800790700017829C1E100017929D8B460D0A2
:10033800BCD7000120EE02F06551D9266651DA22B9
:10034800DE50DE10D8B42CD0000120EE02F065514A
:10035800D9266651DA22DECF6BF0DDCF6CF001D8FA
:100368001BD00500FA6E00016B51FD6E6C51FE6EDC
:10037800FF6AFA5073C0F6FF74C0F7FF000EF86EFC
:100388000F0EF76403D00800F55005D0F6CFE1FF53
:10039800F7CFE2FFE75012000001734B742B28D00F
:1003A80073C0F6FF74C0F7FF000EF86E65C0D9FF82
:1003B80066C0DAFFDECF6BF0DDCF6CF06BC0D9FF23
:1003C8006CC0DAFF0F0EF76403D00800F55005D0B3
:1003D800F6CFE1FFF7CFE2FFE750DF6E0001734B86
:1003E800742B65C0D9FF66C0DAFFDE2A000EDD2255
:1003F80000017107D8A07207000171299AE1000174
:100408007229D8B4A4D295D769C0D9FF6AC0DAFFD7
:10041800DFCF6BF0020EDE26DFCF6CF0000EDD22A0
:100428006BC0D9FF6CC0DAFFDF5000017A6F7A0E1B
:100438000001736F000E0001746F000E0001726FEF
:10044800010E716F19D767C0F6FF68C0F7FF00018A
:10045800674B682BF86A0800F5CF7AF000017A51EB
:10046800000AD8B484D2580AD8B4BAD63B0AD8B449
:10047800CBD7070AD8B40AD00D0AD8B407D01A0ABD
:10048800D8B4B1D60B0AD8B4ABD6D1D7000177BF50
:1004980020D069C0D9FF6AC0DAFFDFCF6BF0020E47
:1004A800DE26DFCF6CF0000EDD226BC0D9FF6CC0FA
:1004B800DAFFDECF75F0DDCF76F0000176AF60D0E1
:1004C800030E000177130001756D761FD8B0762BE7
:1004D80057D069C0D9FF6AC0DAFFDFCF6BF0020ED0
:1004E800DE26DFCF6CF0000EDD226BC0D9FF6CC0BA
:1004F800DAFFDECF75F0DDCF76F042D0010E0001D5
:100508007A6F050E00017A19D8B443D000017A51E8
:10051800020D5B0EF324F66EFE0EF420F76EF86AF9
:10052800000EF8220900F5500001755D0900F5502C
:1005380000017659D8A02DD000017A2BE2D7010E00
:1005480000017A6F040E00017A19D8B422D0000194
:100558007A51020D650EF324F66EFE0EF420F76E46
:10056800F86A000EF8220900F5500001755D0900CF
:10057800F55000017659D8A00CD000017A2BE2D7AB
:1005880000017751800B000AD8B4B8D7800AD8B4D4
:10059800D6D70001785100017911D8B40BD077C0B3
:1005A8006BF0030E00016B17D8B404D00001780774
:1005B800D8A07907800E00017ABF7F0E00016B6F0B
:1005C8000001785100017A5D00017951800A00012B
:1005D8006B59D8B00BD000017A510001785F000E3A
:1005E80000017ABFFF0E0001795B05D0000E000103
:1005F800796F000E786F000177A582D077C06BF015
:10060800030E00016B17D8B438D0000120EE02F0B9
:100618006551D9266651DA22DE50DE10D8B418D0DA
:10062800000120EE02F06551D9266651DA22DECFAC
:100638006BF0DDCF6CF001D820D00500FA6E000118
:100648006B51FD6E6C51FE6EFF6AFA502D0E120052
:1006580065C0D9FF66C0DAFFDECF6BF0DDCF6CF086
:100668006BC0D9FF6CC0DAFF2D0EDF6E65C0D9FFF5
:1006780066C0DAFFDE2A000EDD2200017851000193
:100688007911D8B4C4D0000120EE02F06551D92602
:100698006651DA22DE50DE10D8B418D0000120EE00
:1006A80002F06551D9266651DA22DECF6BF0DDCF34
:1006B8006CF001D820D00500FA6E00016B51FD6E78
:1006C8006C51FE6EFF6AFA50300E120065C0D9FFF9
:1006D80066C0DAFFDECF6BF0DDCF6CF06BC0D9FF00
:1006E8006CC0DAFF300EDF6E65C0D9FF66C0DAFF76
:1006F800DE2A000EDD2200017807D8A07907BDD7D1
:100708000001785100017911D8B442D0000120EEDF
:1007180002F06551D9266651DA22DE50DE10D8B4CF
:1007280018D0000120EE02F06551D9266651DA2270
:10073800DECF6BF0DDCF6CF001D820D00500FA6E6B
:1007480000016B51FD6E6C51FE6EFF6AFA50200E6F
:10075800120065C0D9FF66C0DAFFDECF6BF0DDCFCF
:100768006CF06BC0D9FF6CC0DAFF200EDF6E65C07D
:10077800D9FF66C0DAFFDE2A000EDD220001780705
:10078800D8A079070001785100017911D8A4BED703
:1007980077C06BF0030E00016B17D8B438D0000196
:1007A80020EE02F06551D9266651DA22DE50DE10BD
:1007B800D8B418D0000120EE02F06551D926665150
:1007C800DA22DECF6BF0DDCF6CF001D820D0050047
:1007D800FA6E00016B51FD6E6C51FE6EFF6AFA50A5
:1007E8002D0E120065C0D9FF66C0DAFFDECF6BF0B0
:1007F800DDCF6CF06BC0D9FF6CC0DAFF2D0EDF6E59
:1008080065C0D9FF66C0DAFFDE2A000EDD227AC095
:1008180070F097D000017051020D5B0EF324F66E54
:10082800FE0EF420F76EF86A000EF8220900F5CFE4
:1008380028F00A00F5CF29F075C026F076C027F019
:1008480035EC0CF026C060F027C061F0000E000106
:10085800636F0A0E626F5DEC0BF000016051300FA0
:1008680000017A6F35D075C026F076C027F00001F8
:100878007051020D650EF324F66EFE0EF420F76E2D
:10088800F86A000EF8220900F5CF28F00A00F5CF23
:1008980029F035EC0CF026500F0B00016F6F0001AA
:1008A8006F51010D310EF324F66EFF0EF420F76E32
:1008B800F86A000EF8220800F5CF7AF009D0000196
:1008C8007751800B000AD8B4A5D7800AD8B4CBD703
:1008D800000120EE02F06551D9266651DA22DE5079
:1008E800DE10D8B419D0000120EE02F06551D926E7
:1008F8006651DA22DECF6BF0DDCF6CF001D821D063
:100908000500FA6E00016B51FD6E6C51FE6EFF6AB8
:10091800FA5000017A51120065C0D9FF66C0DAFFAB
:10092800DECF6BF0DDCF6CF06BC0D9FF6CC0DAFFA7
:100938007AC0DFFF65C0D9FF66C0DAFFDE2A000E85
:10094800DD220001700700017029D8A4B8D767C05C
:10095800F6FF68C0F7FF0001674B682BF86A0800CC
:10096800F5CF7AF000017A51D8A44EEF00F0000ECE
:100978000001666F000E656F120001EC0EF0F28E3A
:10098800F28C000E276E050E266ED6EC0CF0C70E04
:1009980000017B6FFF0E00017C6F5EEC0CF0000E17
:1009A800276E050E266ED6EC0CF0A00E00017B6FAC
:1009B800FF0E00017C6F5EEC0CF02FEC0EF0730E56
:1009C80000017B6FFF0E00017C6F5EEC0CF02FECDA
:1009D8000EF0910E00017B6FFF0E00017C6F5EEC44
:1009E8000CF02FEC0EF0820E00017B6FFF0E000161
:1009F8007C6F5EEC0CF02FEC0EF01F0E00017B6F8D
:100A0800FF0E00017C6F5EEC0CF02FEC0EF0630E15
:100A180000017B6FFF0E00017C6F5EEC0CF02FEC89
:100A28000EF0BB0E00017B6FFF0E00017C6F5EECC9
:100A38000CF02FEC0EF0C00E00017B6FFE0E0001D3
:100A48007C6F5EEC0CF02FEC0EF0AD0E00017B6FAE
:100A5800FE0E00017C6F5EEC0CF02FEC0EF0D30E56
:100A680000017B6FFE0E00017C6F5EEC0CF02FEC3A
:100A78000EF0E60E00017B6FFE0E00017C6F5EEC4F
:100A88000CF02FEC0EF00C0E00017B6FFF0E000136
:100A98007C6F5EEC0CF02FEC0EF084EC0DF09B0EEE
:100AA8000001686F000E0001696F000E00016A6F97
:100AB800000E00016B6F000E00016D6F000E6C6F71
:100AC800ACEC06F068C078F069C079F021EC0EF063
:100AD8008EEC0BF02AC068F02BC069F0030E000101
:100AE8006B6FE80E6A6F0EEC0AF0D00E00016825F5
:100AF8000001966F070E000169210001976FF90E3A
:100B080000017B6FFE0E00017C6F96C07DF097C0E0
:100B18007EF05EEC0CF02FEC0EF0AE0E00017B6F59
:100B2800FF0E00017C6F5EEC0CF02FEC0EF0000E57
:100B38000001956F000E946F150E0001916FC60E9F
:100B4800E82EFED7912FFCD700D00001944B952BAF
:100B580096C091F097C092F0D890000191379237E3
:100B6800000194510001915D00019251800A000139
:100B7800936F00019551800A00019359D8A04AEF5C
:100B880000F0020E00019965D7D72FEC0EF0030E86
:100B980000019919D8A413D0000194510001965D61
:100BA80000019751800A0001916F00019551800A58
:100BB80000019159D8B003D0050E0001996F040EB9
:100BC80000019919D8A46BD072EC08F00001895182
:100BD80000018A11D8B450D08EEC0BF02AC068F00E
:100BE8002BC069F0030E00016B6FE80E6A6F0EEC04
:100BF8000AF0D00E000168250001966F070E00016B
:100C080069210001976F8D0E00017B6FFE0E0001B8
:100C18007C6F9B0E00017D6F000E00017E6F98C0F7
:100C28007FF00001806B9AC081F00001826B5EEC5E
:100C38000CF00001982B2FEC0EF02FEC0EF0F90EB3
:100C480000017B6FFE0E00017C6F96C07DF097C09F
:100C58007EF05EEC0CF02FEC0EF000019A51040DC2
:100C6800F3CF26F0F4CF27F03EEC0DF0000E000194
:100C7800956F000E946F13D0000194510001965D9A
:100C880000019751800A0001916F00019551800A77
:100C980000019159D8B003D0050E0001996F050ED7
:100CA80000019919D8A446D08EEC0BF02AC068F040
:100CB8002BC069F0030E00016B6FE80E6A6F0EEC33
:100CC8000AF0D00E000168250001966F070E00019A
:100CD80069210001976F6D0E00017B6FFE0E000108
:100CE8007C6F9B0E00017D6F000E00017E6F98C027
:100CF8007FF00001806B9AC081F00001826B5EEC8E
:100D08000CF00001982B2FEC0EF02FEC0EF0F90EE2
:100D180000017B6FFE0E00017C6F96C07DF097C0CE
:100D28007EF05EEC0CF02FEC0EF0000E0001956FDB
:100D3800000E946FAE0E00017B6FFF0E00017C6FFA
:100D48005EEC0CF02FEC0EF0000E0001996FF4D65B
:100D580068C0D9FF69C0DAFFDF500001776F000172
:100D6800684B692B00017751ADEC0DF0D8B0F0D786
:100D7800000E0001736F000E746F000E756F000E89
:100D8800766F000E0001726F2D0E00017719D8A43E
:100D980008D0010E0001726F09D00001684B692B61
:100DA8000DD02B0E00017719D8A408D068C0D9FF40
:100DB80069C0DAFFDF500001776FEFD7300E00010E
:100DC8007719D8A43CD068C0D9FF69C0DAFFDF50D2
:100DD8000001776F0001684B692B00016C5100011D
:100DE8006D11D8B407D0100E00016C1900016D11F7
:100DF800D8A41AD0780E00017719D8B405D0580EA7
:100E080000017719D8A410D0000E00016D6F100EE4
:100E18006C6F68C0D9FF69C0DAFFDF500001776FD7
:100E28000001684B692B0BD000016C5100016D115A
:100E3800D8A405D0000E00016D6F080E6C6F00017C
:100E48006C5100016D11D8A405D0000E00016D6F22
:100E58000A0E6C6F0001775199EC0DF0D8A008D0FC
:100E6800000177510EEC0EF0C90F0001776F09D021
:100E780000017751F2EC0DF0D8A04CD0300E0001F3
:100E8800775F0001775100016E6F6F6B00016C5145
:100E980000016E5D00016F51800A0001706F000152
:100EA8006D51800A00017059D8B034D06CC060F020
:100EB8006DC061F00001000E61BFFF0E626F636FCD
:100EC80073C064F074C065F075C066F076C067F0F2
:100ED800F6EC0AF000017751000160250001736FFC
:100EE800000E000161210001746F000E00016221F3
:100EF8000001756F000E000163210001766F68C064
:100F0800D9FF69C0DAFFDF500001776F0001684B35
:100F1800692BA0D700016A5100016B11D8B412D017
:100F2800FF0E0001682500016E6FFF0E00016921A8
:100F380000016F6F6AC0D9FF6BC0DAFF6EC0DEFFB9
:100F48006FC0DDFF000172510001D8B41BD073C01F
:100F58006EF074C06FF075C070F076C071F000016B
:100F68006E1F6F1F701F711F6E2B000E6F23702373
:100F780071236EC068F06FC069F070C06AF071C00C
:100F88006BF0120073C068F074C069F075C06AF045
:100F980076C06BF01200ABA202D0AB98AB88305091
:100FA800010D000EF324D96E020EF420DA6EAECFD6
:100FB800DFFF302A7F0E306402D0000E306E2F2AF9
:100FC800000E176E000E166E3450D8A412001CD0F6
:100FD80024EC0DF0156E800E2D24D96E010E2E20F6
:100FE800DA6E15C0DFFF800E2D24D96E010E2E207B
:100FF800DA6E0A0EDE18D8A405D0000E176E010EA0
:10100800166E05D02D4A2E2A2F50D8A4E1D71604E3
:101018001710D8A412002D06D8A02E06800E2D2455
:10102800D96E010E2E20DA6E000EDF6E000E000162
:10103800996FDF0E016EFF0E026E800E036E010EB9
:10104800046EAEEC0AF001500210D8A402D0050ECE
:101058002BD0800E106E010E116EE90E126EFF0E6F
:10106800136E5FEC0AF010501110D8B40ED0340E85
:1010780001018A19D8A407D0330E01018B19D8A40D
:1010880002D0040E11D0030E0FD0800E016E010E97
:10109800026ED30E036EFF0E046EAEEC0AF0015022
:1010A8000210D8A404D011D00001996F10D0800E7E
:1010B800016E010E026EDC0E036EFF0E046EAEECC6
:1010C8000AF001500210D8A402D0010EEDD7000E8C
:1010D8002E6E000E2D6E010E346E1200800E266EDE
:1010E800010E276EB8EC0BF0200E26182710D8B486
:1010F80006D0000E00018A6F000E896F1200000EE4
:1011080000018C6F000E8B6F800E0001696F010E5D
:1011180000016A6F9B0E00016B6F000E00016C6F7F
:1011280060EC09F00001695100016A11D8B403D0DC
:1011380000018B4B8C2B800E0001696F010E0001A2
:101148006A6F420E00016B6FFF0E00016C6F60EC5E
:1011580009F00001695100016A11D8B403D00001F7
:101168008B4B8C2B00018CBF3AD000018C5104E1D1
:1011780000018B05D8A033D08D0E00017B6F000EC7
:1011880000017C6FF90E00017D6FFF0E00017E6F7C
:101198009CC17FF00001806B9DC181F00001826BD2
:1011A8000CEC0CF08D0E0001686F000E0001696FE9
:1011B800000E00016A6F000E00016B6F000E000147
:1011C8006D6F100E6C6FACEC06F0000168510001F9
:1011D8009A6F000E00018A6F010E896F1200000ECF
:1011E80000018A6F000E896F120055D060C0D9FFC8
:1011F80061C0DAFFDF50D8B41CD060C0D9FF61C02D
:10120800DAFFDF500001666F62C0F6FF63C0F7FFC8
:10121800000EF86E0F0EF76403D00800F55005D0E5
:10122800F6CFE1FFF7CFE2FFE75000016619D8B427
:101238002CD062C0F6FF63C0F7FF000EF86E0F0EE9
:10124800F76403D00800F55005D0F6CFE1FFF7CFDB
:10125800E2FFE7500001666F676B0001661F671FBA
:10126800664B672B60C0D9FF61C0DAFFDF50000111
:10127800686F00016851000166250001606F000E6B
:10128800000167210001616F12000001604B612BB2
:101298000001624B632B00016407D8A065070001B9
:1012A8006429A4E100016529D8A4A0D7000E000193
:1012B800616F000E606F120042D069C060F06AC0B2
:1012C80061F06BC062F06CC063F06BC026F06CC05C
:1012D80027F0B8EC0BF026C064F027C065F0F9ECF5
:1012E80008F00001605100016111D8A405D069C05F
:1012F80069F06AC06AF01200010E00016925266EC5
:10130800000E00016A21276E6BC0F6FF6CC0F7FF64
:10131800000EF86E0F0EF76403D00800F55005D0E4
:10132800F6CFE1FFF7CFE2FFE7502C6E2C50286E86
:10133800296AA0EC0CF026C069F027C06AF0000109
:10134800695100016A11D8B407D069C0D9FF6AC0D1
:10135800DAFFDF50D8A4B1D7000E0001696F000E84
:1013680000016A6F120049D007C0D9FF08C0DAFF30
:10137800DF50D8B41AD007C0D9FF08C0DAFFDF5051
:101388000D6E09C0F6FF0AC0F7FF000EF86E0F0ECB
:10139800F76403D00800F55005D0F6CFE1FFF7CF8A
:1013A800E2FFE7500D18D8B424D009C0F6FF0AC0F0
:1013B800F7FF000EF86E0F0EF76403D00800F55023
:1013C80005D0F6CFE1FFF7CFE2FFE7500D6E0E6ACA
:1013D8000D1E0E1E0D4A0E2A07C0D9FF08C0DAFFDF
:1013E800DF500F6E0F500D24076E000E0E20086E92
:1013F8001200074A082A094A0A2A0B06D8A00C062E
:101408000B28B2E10C28D8A4AFD7000E086E000E46
:10141800076E1200000E00016D6F000169AF08D061
:101428000001686D691FD8B0692B010E00016D6F4E
:1014380000016BAF05D000016A6D6B1FD8B06B2B34
:1014480000016A5100016B11D8B426D0010E0001C9
:101458006C6F06D00001D8906A376B3700016C2B8F
:1014680000016BAFF7D700016A510001685D000108
:101478006B5100016959D8A008D000016A510001D8
:10148800685F00016B510001695B0001D8906B3304
:101498006A3300016C2FE7D700016D510001D8B401
:1014A80005D00001686D691FD8B0692B68C068F065
:1014B80069C069F012003ED010C007F011C008F0F2
:1014C80012C009F013C00AF012C001F013C002F0F4
:1014D800E2EC0BF001C00BF002C00CF0B7EC09F025
:1014E80007500810D8A405D010C010F011C011F092
:1014F8001200010E1024016E000E1120026E12C09F
:10150800F6FF13C0F7FF000EF86E0F0EF76403D056
:101518000800F55005D0F6CFE1FFF7CFE2FFE7501E
:10152800146E1450036E046ABBEC0CF001C010F08A
:1015380002C011F010501110D8B407D010C0D9FF54
:1015480011C0DAFFDF50D8A4B7D7000E106E000E16
:10155800116E120004D0014A022A034A042A01C06B
:10156800F6FF02C0F7FF000EF86E0F0EF76403D007
:101578000800F55005D0F6CFE1FFF7CFE2FFE750BE
:10158800056E03C0F6FF04C0F7FF000EF86E0F0EDD
:10159800F76403D00800F55005D0F6CFE1FFF7CF88
:1015A800E2FFE75000080524066E0650D8A414D0C0
:1015B80001C0F6FF02C0F7FF000EF86E0F0EF764C9
:1015C80003D00800F55005D0F6CFE1FFF7CFE2FFD2
:1015D800E7500009D8A4BFD70650016E026A01BEC1
:1015E80002061200000E266E000E276E000E286EF0
:1015F800000E296E000160A10CD00001645126265E
:101608000001655127220001665128220001675117
:1016180029220001D890643765376637673700019B
:10162800D890633362336133603300016051000145
:1016380061110001621100016311D8A4DBD726C033
:1016480060F027C061F028C062F029C063F0120082
:1016580002EE00F0800EEE6AE806FDE101EE00F011
:1016680011EE00F0EE6AE550E150FCE1E250FAE1DB
:1016780000EE98F02B0EEE6AE806FDE100EE2DF084
:10168800080EEE6AE806FDE17E0EF66E1C0EF76E99
:10169800000EF86E00EE35F010EE04F00900F5CFFC
:1016A800EEFFE550E150FAE13A903A920001C1EFBD
:1016B80004F00001625100016311D8B426D0010E74
:1016C8000001646F06D00001D890623763370001CB
:1016D800642B000163AFF7D7000162510001605D20
:1016E8000001635100016159D8A008D0000162517E
:1016F8000001605F000163510001615B0001D89047
:10170800633362330001642FE7D760C060F061C0C3
:1017180061F0120035C060F036C061F037C062F089
:1017280038C063F06D0E0001646F4E0E656FC60E13
:10173800666F410E676FF6EC0AF060C035F061C065
:1017480036F062C037F063C038F0390E3526300EF7
:101758003622000E3722000E3822FF0E37142A6E6A
:101768007F0E38142B6E120026C02AF027C02BF0EB
:1017780002D02A4A2B2A2AC0F6FF2BC0F7FF000EF8
:10178800F86E0F0EF76403D00800F55005D0F6CFB9
:10179800E1FFF7CFE2FFE7500009D8A4EAD726C057
:1017A80028F027C029F0281E291E284A292A2A504D
:1017B8002824266E2B502920276E120001C005F020
:1017C80002C006F002D0054A062A05C0F6FF06C088
:1017D800F7FF000EF86E0F0EF76403D00800F550FF
:1017E80005D0F6CFE1FFF7CFE2FFE7500009D8A414
:1017F800EAD701C003F002C004F0031E041E034A26
:10180800042A05500324016E06500420026E1200BB
:101818007BC085F07CC086F0000E0001876F000E4B
:101828000001886F7F0E0001836F000E0001846F36
:10183800850E0001656F000E0001666F7DC067F0C0
:101848007EC068F0830E0001696F000E00016A6FA8
:101858004CEC00F085C0D9FF86C0DAFF000EDF6EC1
:101868001200000E2B6E000E2A6E28502910D8B4D4
:101878001CD0010E2C6E04D0D890283629362C2A7C
:1018880029AEFAD7D8902A362B362850265C29500C
:101898002758D8A005D02850265E2950275A2A80D4
:1018A800D890293228322C2EEDD72AC026F02BC00A
:1018B80027F01200000E0001856F000E0001866FF0
:1018C8006A0E0001876F1C0E0001886F7D0E0001F3
:1018D800836F000E0001846F850E0001656F000E96
:1018E8000001666F7BC067F07CC068F0830E000162
:1018F800696F000E00016A6F4CEC00F01200266E52
:101908003950D8B4FDD79DB803D026C0ADFF12D04A
:101918009D983250010D000EF324D96E010EF4206B
:10192800DA6E26C0DFFF322A7F0E326402D0000E44
:10193800326E39069D88120026C0D9FF27C0DAFF0B
:101948002850DE18D8A405D026C026F027C027F0D6
:10195800120026C0D9FF27C0DAFF264A272ADF50FF
:10196800D8A4EAD7000E266E000E276E120001C01A
:10197800D9FF02C0DAFF0350DE18D8A405D001C091
:1019880001F002C002F0120001C0D9FF02C0DAFF64
:10199800014A022ADF50D8A4EAD7000E016E000ED1
:1019A800026E1200000E2B6E09D0680E286EE40E2F
:1019B800E82EFED7282EFCD700D02B2A2B50286ED5
:1019C800296A2650285C2950800A2A6E2750800AE6
:1019D8002A58D8B01200E9D7000E8A6E000E896E18
:1019E800000E8B6E2F0E0F01386F3E0E0F01396FF0
:1019F800380E0F013A6FC80E936EF90E946EFE0EF4
:101A0800616EEF0E926EF18EF29612009D9A9D987D
:101A1800000EB86E900EAB6E200EAC6E100EAF6E50
:101A2800000EB06E000E326E000E336E800E396EF0
:101A3800000E306E000E316E000E2F6E9D8A120061
:101A4800000E016E2F50D8B4FDD79D9A3150010D6C
:101A5800000EF324D96E020EF420DA6EDF50016E08
:101A6800312A7F0E316402D0000E316E2F069D8A16
:101A78000150120026C028F027C029F0D89029323A
:101A88002832D890293228322850BE6E26C028F035
:101A9800030E2816283AF00E2816BD50CF0B281032
:101AA800BD6E120026C02AF027C02BF004D02A4AA7
:101AB8002B2A284A292A28C0D9FF29C0DAFF2AC098
:101AC800E1FF2BC0E2FFDFCFE7FFE750D8B41200F9
:101AD800EED7800E396012D03350010D000EF3247A
:101AE800D96E010EF420DA6EDF50AD6E332A7F0E08
:101AF800336402D0000E336E392A12009D9812000A
:101B0800530E00017B6FFF0E00017C6F5EEC0CF042
:101B18002FEC0EF09B0E266E000E276E800E286EA0
:101B2800010E296E56EC0DF012002B6E010E2A6E76
:101B38007B0E2B6003D0610E2B6007D02B50E3EC9B
:101B48000DF0D8B002D0000E2A6E2AC029F0293034
:101B58001200286E010E276E200E2818D8B408D05F
:101B68000E0E286003D0090E286002D0000E276EE2
:101B780027C026F02630120026502802F3CF2AF07C
:101B8800F4CF2BF026502902F3502B262750280299
:101B9800F3502B262AC026F02BC027F012000E0E79
:101BA800BD6E000EB66E820EB76E010EB96E000ED7
:101BB800BE6E000EBF6EFC0E0F0149171200286E94
:101BC800000E276E5B0E286005D0400E286402D0F8
:101BD800010E276E27C026F026301200286E000E50
:101BE800276E3A0E286005D02F0E286402D0010E09
:101BF800276E27C026F0263012003AEC0EF0F0ECE3
:101C08000CF028EC0EF0D3EC0DF018EC0EF00AEC0A
:101C18000DF01200266E7B0E266004D0600E26643E
:101C280001D0269A26501200000EBA6EBB68000E2C
:101C3800BC6E9E9241EC0EF0120078C035F079C06F
:101C480036F0376A386A1200700ED36E040ED26E00
:101C5800400E9B6E12003404D8A4FDD7000E346EDB
:101C68001200276E275083EC0CF01200D09EF194DE
:0E1C78009F989F9A120001000000BA8412008B
:10FE5A000001000A006400E80310270100100000F6
:10FE6A00010010726164696F20747820343225733E
:10FE7A00253032582530325830303030303030303A
:10FE8A000D0A00726164696F207478203432257318
:10FE9A002530325825303258303030303030303119
:10FEAA000D0A00726164696F20736574206277209D
:10FEBA003530300D0A00726164696F2073657420F1
:10FECA00707772202D320D0A00726164696F207397
:10FEDA006574207366207366370D0A00726164695F
:10FEEA006F2073657420637220342F380D0A0072F4
:10FEFA006164696F20736574207764742025640DCA
:10FF0A000A00726164696F207365742063726320EA
:10FF1A006F6E0D0A00726164696F206765742070E4
:10FF2A00726C656E0D0A003031323334353637382B
:10FF3A0039414243444546004646464646464646B9
:10FF4A0046464646464646460073797320676574B8
:10FF5A002068776575690D0A00726164696F2067A8
:10FF6A006574207077720D0A00726164696F206788
:10FF7A0065742073660D0A00726164696F20676593
:10FF8A00742063720D0A00726164696F2067657478
:10FF9A002062770D0A00737973206765742076658D
:10FFAA00720D0A00726164696F20727820300D0A3E
:10FFBA00006D61632070617573650D0A0073797352
:10FFCA002072657365740D0A00726164696F5F74EB
:10FFDA00785F6F6B00726164696F5F65727200723D
:10FFEA006164696F5F727800286E756C6C290025F0
:05FFFA00632563000017
:020000040020DA
:08000000FFFFFFFFFFFFFFFF00
:020000040030CA
:0E000000FF281F3CFFBF81FF0FC00FE00F4025
:00000001FF
