:0400000050EF00F0CD
:100008003D82FACF05F0FBCF06F0E9CF07F0EACF43
:1000180008F0E1CF09F0E2CF0AF0D9CF0BF0DACF40
:100028000CF0F3CF0DF0F4CF0EF0F6CF0FF0F7CFC2
:1000380010F0F8CF11F0F5CF12F0F2BAF2A403D015
:10004800C2EC04F00BD09DB89EA803D02DEC04F0B0
:1000580005D09DBA9EAA02D044EC04F012C0F5FF68
:1000680011C0F8FF10C0F7FF0FC0F6FF0EC0F4FF75
:100078000DC0F3FF0CC0DAFF0BC0D9FF0AC0E2FFC6
:1000880009C0E1FF08C0EAFF07C0E9FF06C0FBFF9F
:1000980005C0FAFF3D921100FCEF03F0210E2A6E15
:1000A800000E2B6E77D1250E3218D8B404D03250FA
:1000B800C8EC04F06FD1000E316E000E306E000EE9
:1000C8002F6E03D02F841F4A202A1FC0F6FF20C09E
:1000D800F7FF0800F550300AD8B4F4D71FC0F6FF70
:1000E80020C0F7FF0800F5507DEC04F0D8A035D00B
:1000F800000E316E000E306E30C013F031C014F0B7
:10010800000E166E0A0E156E5AEC04F013C030F08D
:1001180014C031F0D00E256EFF0E266E1FC0F6FFFC
:1001280020C0F7FF0800F550276E286A25502726BB
:100138002650282227503026285031221F4A202AAC
:100148001FC0F6FF20C0F7FF0800F5507DEC04F053
:10015800D8A003D0D1D72F8E1AD01FC0F6FF20C049
:10016800F7FF1F4A202A0800F5CF32F03250000A64
:10017800D8B41200580AD8B4EED73C0AD8B407D07D
:100188000D0AD8B404D0110AD8B4E5D703D12FBECC
:1001980015D02AC0D9FF2BC0DAFFDECF2DF0DDCF76
:1001A8002EF0020E2A26000E2B222EAE44D0030E6D
:1001B8002F122D6C2E1ED8B02E2A3DD02AC0D9FF62
:1001C8002BC0DAFFDECF2DF0DDCF2EF0020E2A266F
:1001D800000E2B2230D0010E326E050E3218D8B424
:1001E80032D03250020DDF0EF324F66EFE0EF420EC
:1001F800F76E0900F5502D5C0900F5502E58D8A06F
:1002080022D0322AEAD7010E326E040E3218D8B440
:100218001AD03250020DE90EF324F66EFE0EF420C9
:10022800F76E0900F5502D5C0900F5502E58D8A03E
:100238000AD0322AEAD72F50800B000AD8B4CBD77D
:10024800800AD8B4E0D730503110D8B409D02FC0C4
:1002580025F0030E2516D8B403D03006D8A03106F1
:10026800800E32BE7F0E256E3050325C3150800ACF
:100278002558D8B007D03250305E000E32BEFF0E7F
:10028800315A04D0000E316E000E306E2FA414D0F7
:100298002FC025F0030E2516D8B403D02D0EC8ECB8
:1002A80004F030503110D8B41ED0300EC8EC04F031
:1002B8003006D8A03106F5D730503110D8B40AD05E
:1002C800200EC8EC04F03006D8A0310630503110AA
:1002D800D8A4F6D72FC025F0030E2516D8B403D01E
:1002E8002D0EC8EC04F032C02CF050D02C50020D6A
:1002F800DF0EF324F66EFE0EF420F76E0900F5CF3C
:1003080015F00A00F5CF16F02DC013F02EC014F02A
:1003180061EC03F013C01AF014C01BF0000E1D6E40
:100328000A0E1C6E8AEC03F01A50300F326E2BD076
:100338002DC013F02EC014F02C50020DE90EF3243A
:10034800F66EFE0EF420F76E0900F5CF15F00A00E0
:10035800F5CF16F061EC03F013500F0B296E2950FE
:10036800010D8A0EF324F66EFF0EF420F76E0800D6
:10037800F5CF32F008D02F50800B000AD8B4B6D78A
:10038800800AD8B4D5D73250C8EC04F02C062C28F3
:10039800D8A4F1D71FC0F6FF20C0F7FF1F4A202AB4
:1003A8000800F5CF32F03250D8B412007CD68CEC6D
:1003B80004F0F28EF28CD00E336ECA0EE82EFED701
:1003C800332EFCD7F20E1F6EFF0E206E52EC00F09B
:1003D800000E0001E66F090E0001E66501D00AD0A3
:1003E800D00E336ECA0EE82EFED7332EFCD700018E
:1003F800E62BF1D7D80E1F6EFF0E206E52EC00F0E0
:10040800000E0001E76F090E0001E76501D00AD070
:10041800D00E336ECA0EE82EFED7332EFCD700015D
:10042800E72BF1D7AB0E1F6EFF0E206E52EC00F0DB
:10043800000E0001E86F090E0001E86501D00AD03E
:10044800D00E336ECA0EE82EFED7332EFCD700012D
:10045800E82BF1D7C90E1F6EFF0E206E52EC00F08C
:10046800000E0001E96F090E0001E96501D00AD00C
:10047800D00E336ECA0EE82EFED7332EFCD70001FD
:10048800E92BF1D7BA0E1F6EFF0E206E52EC00F06A
:10049800000E0001EA6F090E0001EA6501D00AD0DA
:1004A800D00E336ECA0EE82EFED7332EFCD70001CD
:1004B800EA2BF1D7780E1F6EFF0E206E52EC00F07B
:1004C800000E0001EB6F090E0001EB6501D00AD0A8
:1004D800D00E336ECA0EE82EFED7332EFCD700019D
:1004E800EB2BF1D79B0E1F6EFF0E206E52EC00F027
:1004F800000E0001EC6F090E0001EC6501D00AD076
:10050800D00E336ECA0EE82EFED7332EFCD700016C
:10051800EC2BF1D7E60E1F6EFF0E206E52EC00F0AA
:10052800000E0001ED6F090E0001ED6501D00AD043
:10053800D00E336ECA0EE82EFED7332EFCD700013C
:10054800ED2BF1D72C0E1F6EFF0E206E52EC00F033
:10055800000E0001EE6F090E0001EE6501D00AD011
:10056800D00E336ECA0EE82EFED7332EFCD700010C
:10057800EE2BF1D7190E1F6EFF0E206E52EC00F015
:10058800000E0001EF6F090E0001EF6501D00AD0DF
:10059800D00E336ECA0EE82EFED7332EFCD70001DC
:1005A800EF2BF1D7520E1F6EFF0E206E52EC00F0AB
:1005B800000E0001F06F090E0001F06501D00AD0AD
:1005C800D00E336ECA0EE82EFED7332EFCD70001AC
:1005D800F02BF1D73F0E1F6EFF0E206E52EC00F08D
:1005E800000E0001F16F090E0001F16501D00AD07B
:1005F800D00E336ECA0EE82EFED7332EFCD700017C
:10060800F12BF1D7650E1F6EFF0E206E52EC00F035
:10061800000E0001F26F090E0001F26501D00AD048
:10062800D00E336ECA0EE82EFED7332EFCD700014B
:10063800F22BF1D7000E0001E56F000EE46F000EFB
:100648000001E16F000EE06F000E0001E36F000E85
:10065800E26FD00E336ECA0EE82EFED7332EFCD7CB
:10066800D00E336ECA0EE82EFED7332EFCD7D00E2E
:10067800336ECA0EE82EFED7332EFCD7D00E336E5B
:10068800CA0EE82EFED7332EFCD7D00E336ECA0E14
:10069800E82EFED7332EFCD7F10E1F6EFE0E206E0D
:1006A800E4C021F0E5C022F039C023F0246A52ECFE
:1006B80000F00001E44BE52BCCD7000E196E000EBC
:1006C800186E15501610D8B41CD0010E176E04D031
:1006D800D89015361636172A16AEFAD7D890183687
:1006E80019361550135C16501458D8A005D015505B
:1006F800135E1650145A1880D89016321532172ED9
:10070800EDD718C013F019C014F012001C501D10BA
:10071800D8B418D0010E1E6E04D0D8901C361D36E1
:100728001E2A1DAEFAD71C501A5C1D501B58D8A0A3
:1007380004D01C501A5E1D501B5AD8901D321C3212
:100748001E2EF1D71AC01AF01BC01BF01200136E30
:100758003B50D8B4FDD79DB803D013C0ADFF12D01D
:100768009D983750010D600EF324D96E000EF420C9
:10077800DA6E13C0DFFF372A7F0E376402D0000E0F
:10078800376E3B069D881200000E8A6E000E896E39
:10079800000E8B6E2F0E0F01386F3E0E0F01396F52
:1007A800380E0F013A6FC80E936EF90E946EFE0E56
:1007B800616EEF0E926EF18EF29612009D9A9D98E0
:1007C800000EB86E900EAB6E200EAC6E100EAF6EB3
:1007D800000EB06E000E376E000E386E800E3B6E47
:1007E800000E356E000E366E000E346E9D8A1200B5
:1007F80001EE00F0800EEE6AE806FDE100EE60F022
:10080800800EEE6AE806FDE100EE34F0070EEE6AAF
:10081800E806FDE13D903D92000EF86E0001DBEF29
:1008280001F001C003F002C004F0D8900432033292
:10083800D890043203320350BE6E01C003F0030E99
:100848000316033AF00E0316BD50CF0B0310BD6E0E
:100858001200800E3B6012D03850010D600EF32458
:10086800D96E000EF420DA6EDF50AD6E382A7F0E96
:10087800386402D0000E386E3B2A12009D98120090
:10088800ABA202D0AB98AB883550010D000EF32413
:10089800D96E010EF420DA6EAECFDFFF352A7F0E57
:1008A800356402D0000E356E342A1200135015023A
:1008B800F3CF17F0F4CF18F013501602F3501826A0
:1008C80014501502F350182617C013F018C014F06E
:1008D80012000E0EBD6E000EB66E820EB76E010EC1
:1008E800B96E000EBE6E000EBF6EFC0E0F014917EA
:1008F8001200156E000E146E3A0E156005D02F0EFC
:10090800156402D0010E146E14C013F013301200D7
:10091800CDEC04F0C8EC03F0BBEC04F06DEC04F093
:10092800AAEC04F09BEC04F0E2EC03F01200000ED9
:100938003A6ED70ED56E0B0ED76EDC0ED66EDC0E69
:100948003C6EF294F28AD4EC04F01200000EBA6EF7
:10095800BB68000EBC6E9E92D2EC04F01200640ECE
:100968003A263AC001F0026A15EC04F01200700E43
:10097800D36E040ED26E400E9B6E1200F2943CC0F1
:10098800D6FFB3EC04F01200146E1450ABEC03F075
:100998001200D09EF1949F989F9A1200BA84120078
:0409A800D58E1200D6
:10FEDE000001000A006400E8031027010010000072
:10FEEE00010010726164696F2074782031303030F7
:10FEFE0030303030303030303030303030303030F4
:10FF0E0030302530345825640D0A00726164696FF3
:10FF1E0020736574206277203530300D0A007261CF
:10FF2E0064696F2073657420707772202D330D0A0B
:10FF3E0000726164696F2073657420637220342FC0
:10FF4E00350D0A00726164696F20736574207366E3
:10FF5E00207366370D0A00726164696F20736574D1
:10FF6E0020637263206F6E0D0A00726164696F20E8
:10FF7E006765742070726C656E0D0A003031323315
:10FF8E003435363738394142434445460072616450
:10FF9E00696F20676574207077720D0A0072616454
:10FFAE00696F206765742073660D0A00726164695B
:10FFBE006F206765742063720D0A00726164696F49
:10FFCE00206765742062770D0A0073797320676568
:10FFDE0074207665720D0A006D6163207061757311
:10FFEE00650D0A007379732072657365740D0A00CE
:01FFFE000002
:020000040020DA
:08000000FFFFFFFFFFFFFFFF00
:020000040030CA
:0E000000FF281F3CFFBF81FF0FC00FE00F4025
:00000001FF
