:040000004AEF00F0D3
:100008002A82FACF01F0FBCF02F0E9CF03F0EACF62
:1000180004F0E1CF05F0E2CF06F0D9CF07F0DACF50
:1000280008F0F3CF09F0F4CF0AF0F6CF0BF0F7CFD2
:100038000CF0F8CF0DF0F5CF0EF09DB89EA803D0C8
:10004800A4EC09F005D09DBA9EAA02D0BBEC09F039
:100058000EC0F5FF0DC0F8FF0CC0F7FF0BC0F6FF90
:100068000AC0F4FF09C0F3FF08C0DAFF07C0D9FFD0
:1000780006C0E2FF05C0E1FF04C0EAFF03C0E9FFD4
:1000880002C0FBFF01C0FAFF2A921100E6EF09F057
:1010000000726164696F2074782031323334353670
:101010003738393031320D0A00726164696F2073DC
:101020006574207077722031350D0A007261646931
:101030006F206765742070726C656E0D0A007261B6
:1010400064696F20676574207077720D0A007261A1
:1010500064696F206765742073660D0A00726164AD
:10106000696F206765742063720D0A00726164699C
:101070006F206765742062770D0A007379732067AB
:101080006574207665720D0A00001DEC0AF0F28E80
:10109000F28CD00E166ECA0EE82EFED7162EFCD796
:1010A000000E196E090E196401D009D0D00E166E0B
:1010B000CA0EE82EFED7162EFCD7192AF3D77B0EC0
:1010C000116E100E126ED1EC09F0000E1A6E090EA0
:1010D0001A6401D009D0D00E166ECA0EE82EFED7C3
:1010E000162EFCD71A2AF3D74E0E116E100E126E62
:1010F000D1EC09F0000E1B6E090E1B6401D009D063
:10110000D00E166ECA0EE82EFED7162EFCD71B2A5E
:10111000F3D76C0E116E100E126ED1EC09F0000EAA
:101120001C6E090E1C6401D009D0D00E166ECA0EBA
:10113000E82EFED7162EFCD71C2AF3D75D0E116EB3
:10114000100E126ED1EC09F0000E1D6E090E1D641A
:1011500001D009D0D00E166ECA0EE82EFED7162E7C
:10116000FCD71D2AF3D72C0E116E100E126ED1EC87
:1011700009F0000E1E6E090E1E6401D009D0D00EBB
:10118000166ECA0EE82EFED7162EFCD71E2AF3D7EF
:101190003E0E116E100E126ED1EC09F0000E1F6E95
:1011A000090E1F6401D009D0D00E166ECA0EE82EAB
:1011B000FED7162EFCD71F2AF3D7190E116E100E6C
:1011C000126ED1EC09F0000E206E090E206401D0E1
:1011D00009D0D00E166ECA0EE82EFED7162EFCD7FA
:1011E000202AF3D7000E236E010E226E000E186E19
:1011F000010E176E010E116E100E126ED1EC09F079
:10120000000E216E630E216401D0F4D717C00FF0D9
:1012100018C010F0000E126E0A0E116EFAEC09F0F2
:1012200022500F24226E23501020236E22C00FF074
:1012300023C010F08CEC09F0D00E166ECA0EE82E0A
:10124000FED7162EFCD723BE08D0F30E225C030E69
:101250002358D8A002D01768186823BE06D02350A0
:1012600008E10B0E225CD8B004D0000E186E010EFF
:10127000176E212AC7D70F6E2950D8B4FDD79DB855
:1012800003D00FC0ADFF12D09D982750010DA00EC6
:10129000F324D96E000EF420DA6E0FC0DFFF272A88
:1012A0003F0E276402D0000E276E29069D8812008B
:1012B000000E8A6E000E896E000E8B6E2F0E0F01CF
:1012C000386F3E0E0F01396F380E0F013A6FC80E9E
:1012D000936EF90E946EFE0E616EEF0E926EF18EAD
:1012E000F29612009D9A9D98000EB86E900EAB6E0D
:1012F000200EAC6E100EAF6E000EB06E000E276E9C
:10130000000E286E400E296E000E256E000E266E11
:10131000000E246E9D8A12000FC011F010C012F052
:10132000D89012321132D890123211321150BE6E52
:101330000FC011F0030E1116113AF00E1116BD5028
:10134000CF0B1110BD6E1200400E296012D0285034
:10135000010DA00EF324D96E000EF420DA6EDF50DA
:10136000AD6E282A3F0E286402D0000E286E292A6E
:1013700012009D981200ABA202D0AB98AB8825500A
:10138000010D600EF324D96E000EF420DA6EAECF9C
:10139000DFFF252A3F0E256402D0000E256E242A89
:1013A0001200130E136E000E146E03D015503AEC9B
:1013B0000AF011C0F6FF12C0F7FF114A122A080006
:1013C000F5CF15F01550D8B41200F0D700EE60F04C
:1013D000800EEE6AE806FDE1286A276A266A256A19
:1013E000246A2A902A92000EF86E100EF76E000101
:1013F00045EF08F00F501102F3CF13F0F4CF14F0C3
:101400000F501202F350142610501102F3501426FC
:1014100013C00FF014C010F012000E0EBD6E000EBF
:10142000B66E820EB76E010EB96E000EBE6E000E65
:10143000BF6EFC0E0F01491712003FEC0AF058EC8A
:1014400009F033EC0AF00DEC0AF02AEC0AF072EC29
:1014500009F01200000EBA6EBB68000EBC6E9E92C0
:1014600043EC0AF01200700ED36E040ED26E400EE2
:101470009B6E1200106E10503BEC09F01200D09ED3
:0A1480009F989F9A1200BA84120090
:020000040020DA
:08000000FFFFFFFFFFFFFFFF00
:020000040030CA
:0E000000FF281F3CFFBF81FF0FC00FE00F4025
:00000001FF
